{
  "_format": "hh-sol-artifact-1",
  "contractName": "GNSReferrals",
  "sourceName": "contracts/core/GNSReferrals.sol",
  "abi": [
    {
      "anonymous": false,
      "inputs": [
        {
          "indexed": true,
          "internalType": "address",
          "name": "ally",
          "type": "address"
        },
        {
          "indexed": true,
          "internalType": "address",
          "name": "trader",
          "type": "address"
        },
        {
          "indexed": false,
          "internalType": "uint256",
          "name": "volumeDai",
          "type": "uint256"
        },
        {
          "indexed": false,
          "internalType": "uint256",
          "name": "amountToken",
          "type": "uint256"
        },
        {
          "indexed": false,
          "internalType": "uint256",
          "name": "amountValueDai",
          "type": "uint256"
        }
      ],
      "name": "AllyRewardDistributed",
      "type": "event"
    },
    {
      "anonymous": false,
      "inputs": [
        {
          "indexed": true,
          "internalType": "address",
          "name": "ally",
          "type": "address"
        },
        {
          "indexed": false,
          "internalType": "uint256",
          "name": "amountToken",
          "type": "uint256"
        }
      ],
      "name": "AllyRewardsClaimed",
      "type": "event"
    },
    {
      "anonymous": false,
      "inputs": [
        {
          "indexed": true,
          "internalType": "address",
          "name": "ally",
          "type": "address"
        }
      ],
      "name": "AllyUnwhitelisted",
      "type": "event"
    },
    {
      "anonymous": false,
      "inputs": [
        {
          "indexed": true,
          "internalType": "address",
          "name": "ally",
          "type": "address"
        }
      ],
      "name": "AllyWhitelisted",
      "type": "event"
    },
    {
      "anonymous": false,
      "inputs": [
        {
          "indexed": false,
          "internalType": "uint8",
          "name": "version",
          "type": "uint8"
        }
      ],
      "name": "Initialized",
      "type": "event"
    },
    {
      "anonymous": false,
      "inputs": [
        {
          "indexed": true,
          "internalType": "address",
          "name": "trader",
          "type": "address"
        },
        {
          "indexed": true,
          "internalType": "address",
          "name": "referrer",
          "type": "address"
        }
      ],
      "name": "ReferrerRegistered",
      "type": "event"
    },
    {
      "anonymous": false,
      "inputs": [
        {
          "indexed": true,
          "internalType": "address",
          "name": "referrer",
          "type": "address"
        },
        {
          "indexed": true,
          "internalType": "address",
          "name": "trader",
          "type": "address"
        },
        {
          "indexed": false,
          "internalType": "uint256",
          "name": "volumeDai",
          "type": "uint256"
        },
        {
          "indexed": false,
          "internalType": "uint256",
          "name": "amountToken",
          "type": "uint256"
        },
        {
          "indexed": false,
          "internalType": "uint256",
          "name": "amountValueDai",
          "type": "uint256"
        }
      ],
      "name": "ReferrerRewardDistributed",
      "type": "event"
    },
    {
      "anonymous": false,
      "inputs": [
        {
          "indexed": true,
          "internalType": "address",
          "name": "referrer",
          "type": "address"
        },
        {
          "indexed": false,
          "internalType": "uint256",
          "name": "amountToken",
          "type": "uint256"
        }
      ],
      "name": "ReferrerRewardsClaimed",
      "type": "event"
    },
    {
      "anonymous": false,
      "inputs": [
        {
          "indexed": true,
          "internalType": "address",
          "name": "referrer",
          "type": "address"
        }
      ],
      "name": "ReferrerUnwhitelisted",
      "type": "event"
    },
    {
      "anonymous": false,
      "inputs": [
        {
          "indexed": true,
          "internalType": "address",
          "name": "referrer",
          "type": "address"
        },
        {
          "indexed": true,
          "internalType": "address",
          "name": "ally",
          "type": "address"
        }
      ],
      "name": "ReferrerWhitelisted",
      "type": "event"
    },
    {
      "anonymous": false,
      "inputs": [
        {
          "indexed": false,
          "internalType": "uint256",
          "name": "value",
          "type": "uint256"
        }
      ],
      "name": "UpdatedAllyFeeP",
      "type": "event"
    },
    {
      "anonymous": false,
      "inputs": [
        {
          "indexed": false,
          "internalType": "uint256",
          "name": "value",
          "type": "uint256"
        }
      ],
      "name": "UpdatedOpenFeeP",
      "type": "event"
    },
    {
      "anonymous": false,
      "inputs": [
        {
          "indexed": false,
          "internalType": "uint256",
          "name": "value",
          "type": "uint256"
        }
      ],
      "name": "UpdatedStartReferrerFeeP",
      "type": "event"
    },
    {
      "anonymous": false,
      "inputs": [
        {
          "indexed": false,
          "internalType": "uint256",
          "name": "value",
          "type": "uint256"
        }
      ],
      "name": "UpdatedTargetVolumeDai",
      "type": "event"
    },
    {
      "inputs": [
        {
          "internalType": "address",
          "name": "",
          "type": "address"
        }
      ],
      "name": "allyDetails",
      "outputs": [
        {
          "internalType": "uint256",
          "name": "volumeReferredDai",
          "type": "uint256"
        },
        {
          "internalType": "uint256",
          "name": "pendingRewardsToken",
          "type": "uint256"
        },
        {
          "internalType": "uint256",
          "name": "totalRewardsToken",
          "type": "uint256"
        },
        {
          "internalType": "uint256",
          "name": "totalRewardsValueDai",
          "type": "uint256"
        },
        {
          "internalType": "bool",
          "name": "active",
          "type": "bool"
        }
      ],
      "stateMutability": "view",
      "type": "function"
    },
    {
      "inputs": [],
      "name": "allyFeeP",
      "outputs": [
        {
          "internalType": "uint256",
          "name": "",
          "type": "uint256"
        }
      ],
      "stateMutability": "view",
      "type": "function"
    },
    {
      "inputs": [],
      "name": "claimAllyRewards",
      "outputs": [],
      "stateMutability": "nonpayable",
      "type": "function"
    },
    {
      "inputs": [],
      "name": "claimReferrerRewards",
      "outputs": [],
      "stateMutability": "nonpayable",
      "type": "function"
    },
    {
      "inputs": [
        {
          "internalType": "address",
          "name": "trader",
          "type": "address"
        },
        {
          "internalType": "uint256",
          "name": "volumeDai",
          "type": "uint256"
        },
        {
          "internalType": "uint256",
          "name": "pairOpenFeeP",
          "type": "uint256"
        },
        {
          "internalType": "uint256",
          "name": "tokenPriceDai",
          "type": "uint256"
        }
      ],
      "name": "distributePotentialReward",
      "outputs": [
        {
          "internalType": "uint256",
          "name": "",
          "type": "uint256"
        }
      ],
      "stateMutability": "nonpayable",
      "type": "function"
    },
    {
      "inputs": [
        {
          "internalType": "address",
          "name": "trader",
          "type": "address"
        }
      ],
      "name": "getPercentOfOpenFeeP",
      "outputs": [
        {
          "internalType": "uint256",
          "name": "",
          "type": "uint256"
        }
      ],
      "stateMutability": "view",
      "type": "function"
    },
    {
      "inputs": [
        {
          "internalType": "uint256",
          "name": "volumeReferredDai",
          "type": "uint256"
        }
      ],
      "name": "getPercentOfOpenFeeP_calc",
      "outputs": [
        {
          "internalType": "uint256",
          "name": "resultP",
          "type": "uint256"
        }
      ],
      "stateMutability": "view",
      "type": "function"
    },
    {
      "inputs": [
        {
          "internalType": "uint256",
          "name": "pairOpenFeeP",
          "type": "uint256"
        },
        {
          "internalType": "uint256",
          "name": "volumeReferredDai",
          "type": "uint256"
        }
      ],
      "name": "getReferrerFeeP",
      "outputs": [
        {
          "internalType": "uint256",
          "name": "",
          "type": "uint256"
        }
      ],
      "stateMutability": "view",
      "type": "function"
    },
    {
      "inputs": [
        {
          "internalType": "address",
          "name": "ally",
          "type": "address"
        }
      ],
      "name": "getReferrersReferred",
      "outputs": [
        {
          "internalType": "address[]",
          "name": "",
          "type": "address[]"
        }
      ],
      "stateMutability": "view",
      "type": "function"
    },
    {
      "inputs": [
        {
          "internalType": "address",
          "name": "trader",
          "type": "address"
        }
      ],
      "name": "getTraderReferrer",
      "outputs": [
        {
          "internalType": "address",
          "name": "",
          "type": "address"
        }
      ],
      "stateMutability": "view",
      "type": "function"
    },
    {
      "inputs": [
        {
          "internalType": "address",
          "name": "referred",
          "type": "address"
        }
      ],
      "name": "getTradersReferred",
      "outputs": [
        {
          "internalType": "address[]",
          "name": "",
          "type": "address[]"
        }
      ],
      "stateMutability": "view",
      "type": "function"
    },
    {
      "inputs": [
        {
          "internalType": "contract IGNSTradingStorage",
          "name": "_storageT",
          "type": "address"
        },
        {
          "internalType": "uint256",
          "name": "_allyFeeP",
          "type": "uint256"
        },
        {
          "internalType": "uint256",
          "name": "_startReferrerFeeP",
          "type": "uint256"
        },
        {
          "internalType": "uint256",
          "name": "_openFeeP",
          "type": "uint256"
        },
        {
          "internalType": "uint256",
          "name": "_targetVolumeDai",
          "type": "uint256"
        }
      ],
      "name": "initialize",
      "outputs": [],
      "stateMutability": "nonpayable",
      "type": "function"
    },
    {
      "inputs": [],
      "name": "openFeeP",
      "outputs": [
        {
          "internalType": "uint256",
          "name": "",
          "type": "uint256"
        }
      ],
      "stateMutability": "view",
      "type": "function"
    },
    {
      "inputs": [
        {
          "internalType": "address",
          "name": "",
          "type": "address"
        }
      ],
      "name": "referrerByTrader",
      "outputs": [
        {
          "internalType": "address",
          "name": "",
          "type": "address"
        }
      ],
      "stateMutability": "view",
      "type": "function"
    },
    {
      "inputs": [
        {
          "internalType": "address",
          "name": "",
          "type": "address"
        }
      ],
      "name": "referrerDetails",
      "outputs": [
        {
          "internalType": "address",
          "name": "ally",
          "type": "address"
        },
        {
          "internalType": "uint256",
          "name": "volumeReferredDai",
          "type": "uint256"
        },
        {
          "internalType": "uint256",
          "name": "pendingRewardsToken",
          "type": "uint256"
        },
        {
          "internalType": "uint256",
          "name": "totalRewardsToken",
          "type": "uint256"
        },
        {
          "internalType": "uint256",
          "name": "totalRewardsValueDai",
          "type": "uint256"
        },
        {
          "internalType": "bool",
          "name": "active",
          "type": "bool"
        }
      ],
      "stateMutability": "view",
      "type": "function"
    },
    {
      "inputs": [
        {
          "internalType": "address",
          "name": "trader",
          "type": "address"
        },
        {
          "internalType": "address",
          "name": "referrer",
          "type": "address"
        }
      ],
      "name": "registerPotentialReferrer",
      "outputs": [],
      "stateMutability": "nonpayable",
      "type": "function"
    },
    {
      "inputs": [],
      "name": "startReferrerFeeP",
      "outputs": [
        {
          "internalType": "uint256",
          "name": "",
          "type": "uint256"
        }
      ],
      "stateMutability": "view",
      "type": "function"
    },
    {
      "inputs": [],
      "name": "storageT",
      "outputs": [
        {
          "internalType": "contract IGNSTradingStorage",
          "name": "",
          "type": "address"
        }
      ],
      "stateMutability": "view",
      "type": "function"
    },
    {
      "inputs": [],
      "name": "targetVolumeDai",
      "outputs": [
        {
          "internalType": "uint256",
          "name": "",
          "type": "uint256"
        }
      ],
      "stateMutability": "view",
      "type": "function"
    },
    {
      "inputs": [
        {
          "internalType": "address",
          "name": "ally",
          "type": "address"
        }
      ],
      "name": "unwhitelistAlly",
      "outputs": [],
      "stateMutability": "nonpayable",
      "type": "function"
    },
    {
      "inputs": [
        {
          "internalType": "address",
          "name": "referrer",
          "type": "address"
        }
      ],
      "name": "unwhitelistReferrer",
      "outputs": [],
      "stateMutability": "nonpayable",
      "type": "function"
    },
    {
      "inputs": [
        {
          "internalType": "uint256",
          "name": "value",
          "type": "uint256"
        }
      ],
      "name": "updateAllyFeeP",
      "outputs": [],
      "stateMutability": "nonpayable",
      "type": "function"
    },
    {
      "inputs": [
        {
          "internalType": "uint256",
          "name": "value",
          "type": "uint256"
        }
      ],
      "name": "updateOpenFeeP",
      "outputs": [],
      "stateMutability": "nonpayable",
      "type": "function"
    },
    {
      "inputs": [
        {
          "internalType": "uint256",
          "name": "value",
          "type": "uint256"
        }
      ],
      "name": "updateStartReferrerFeeP",
      "outputs": [],
      "stateMutability": "nonpayable",
      "type": "function"
    },
    {
      "inputs": [
        {
          "internalType": "uint256",
          "name": "value",
          "type": "uint256"
        }
      ],
      "name": "updateTargetVolumeDai",
      "outputs": [],
      "stateMutability": "nonpayable",
      "type": "function"
    },
    {
      "inputs": [
        {
          "internalType": "address",
          "name": "ally",
          "type": "address"
        }
      ],
      "name": "whitelistAlly",
      "outputs": [],
      "stateMutability": "nonpayable",
      "type": "function"
    },
    {
      "inputs": [
        {
          "internalType": "address",
          "name": "referrer",
          "type": "address"
        },
        {
          "internalType": "address",
          "name": "ally",
          "type": "address"
        }
      ],
      "name": "whitelistReferrer",
      "outputs": [],
      "stateMutability": "nonpayable",
      "type": "function"
    }
  ],
  "bytecode": "0x608060405234801561001057600080fd5b50611e90806100206000396000f3fe608060405234801561001057600080fd5b50600436106101795760003560e01c806397365b74116100d9578063c36acccd11610087578063c36acccd146103e2578063df374a9b1461040b578063e78c6fd214610414578063ea61c60214610427578063ee6cf8841461043a578063f79ad43e14610442578063f92ad2191461045557600080fd5b806397365b74146103675780639b8ab6841461037a578063a16f25341461038d578063a6a7d393146103a0578063a73a3e35146103a9578063bc786541146103bc578063c3160c68146103cf57600080fd5b806355c780281161013657806355c780281461022657806365ae45271461023957806365cbd307146102a757806366f59b9b146102af5780636a83de79146102b85780637792a2311461034157806394df2c7c1461035457600080fd5b806303e374641461017e57806316fff074146101935780631727e82d146101c9578063201ad16d146101e057806332a7b732146101f35780634e583b3114610213575b600080fd5b61019161018c366004611b6e565b610468565b005b6000546101ac906201000090046001600160a01b031681565b6040516001600160a01b0390911681526020015b60405180910390f35b6101d260025481565b6040519081526020016101c0565b6101d26101ee366004611b9f565b610597565b610206610201366004611b9f565b6105d3565b6040516101c09190611bbc565b6101d2610221366004611c09565b61064c565b610191610234366004611b9f565b6106f3565b61027d610247366004611b9f565b60056020819052600091825260409091206001810154600282015460038301546004840154939094015491939092909160ff1685565b6040805195865260208601949094529284019190915260608301521515608082015260a0016101c0565b61019161081c565b6101d260045481565b6103086102c6366004611b9f565b60066020819052600091825260409091208054600282015460038301546004840154600585015494909501546001600160a01b03909316949193909260ff1686565b604080516001600160a01b03909716875260208701959095529385019290925260608401526080830152151560a082015260c0016101c0565b6101d261034f366004611b6e565b61097c565b610191610362366004611b9f565b610a30565b610191610375366004611b6e565b610b59565b610191610388366004611c2b565b610c56565b61019161039b366004611b6e565b610df2565b6101d260015481565b6102066103b7366004611b9f565b610f08565b6101916103ca366004611b9f565b610f7c565b6101ac6103dd366004611b9f565b6110f5565b6101ac6103f0366004611b9f565b6007602052600090815260409020546001600160a01b031681565b6101d260035481565b6101d2610422366004611c64565b61113d565b610191610435366004611c2b565b611521565b61019161175b565b610191610450366004611b6e565b6118b3565b610191610463366004611c9f565b6119b0565b600060029054906101000a90046001600160a01b03166001600160a01b03166312d43a516040518163ffffffff1660e01b8152600401602060405180830381865afa1580156104bb573d6000803e3d6000fd5b505050506040513d601f19601f820116820180604052508101906104df9190611ce3565b6001600160a01b0316336001600160a01b0316146105185760405162461bcd60e51b815260040161050f90611d00565b60405180910390fd5b606481111561055b5760405162461bcd60e51b815260206004820152600f60248201526e056414c55455f41424f56455f31303608c1b604482015260640161050f565b60028190556040518181527fb85b70acaeb40f1a2351367c48842ee0ea24ec05d411d99d80bf7a020c0dbb0f906020015b60405180910390a150565b6001600160a01b03808216600090815260076020908152604080832054909316825260069052908120600201546105cd9061097c565b92915050565b6001600160a01b03811660009081526006602090815260409182902060010180548351818402810184019094528084526060939283018282801561064057602002820191906000526020600020905b81546001600160a01b03168152600190910190602001808311610622575b50505050509050919050565b60008060646003548560026106619190611d38565b61066b9190611d38565b6106759190611d4f565b905060006064600254836106899190611d38565b6106939190611d4f565b90506000600454670de0b6b3a76400008684866106b09190611d71565b6106ba9190611d38565b6106c49190611d4f565b6106ce9190611d4f565b6106d89083611d84565b90508281116106e757806106e9565b825b9695505050505050565b600060029054906101000a90046001600160a01b03166001600160a01b03166312d43a516040518163ffffffff1660e01b8152600401602060405180830381865afa158015610746573d6000803e3d6000fd5b505050506040513d601f19601f8201168201806040525081019061076a9190611ce3565b6001600160a01b0316336001600160a01b03161461079a5760405162461bcd60e51b815260040161050f90611d00565b6001600160a01b03811660009081526006602081905260409091209081015460ff166107d85760405162461bcd60e51b815260040161050f90611d97565b60068101805460ff191690556040516001600160a01b038316907f6dd169357c2e2b04fd13a8807a11892b88875b7c70eeb73c3b6642c58516f0db90600090a25050565b33600090815260066020526040902060038101548061084d5760405162461bcd60e51b815260040161050f90611dc1565b60008260030181905550600060029054906101000a90046001600160a01b03166001600160a01b031663fc0c546a6040518163ffffffff1660e01b8152600401602060405180830381865afa1580156108aa573d6000803e3d6000fd5b505050506040513d601f19601f820116820180604052508101906108ce9190611ce3565b60405163a9059cbb60e01b8152336004820152602481018390526001600160a01b03919091169063a9059cbb906044016020604051808303816000875af115801561091d573d6000803e3d6000fd5b505050506040513d601f19601f820116820180604052508101906109419190611ded565b5060405181815233907f25deb48f8299e9863bda34f0d343d51341ac7ac30bf63dbeb2e8212bc4a20bf1906020015b60405180910390a25050565b60006064600454670de0b6b3a7640000600254606461099b9190611d71565b6109aa6402540be40087611d38565b6109b49190611d38565b6109be9190611d4f565b6109c89190611d4f565b6402540be4006002546109db9190611d38565b6109e59190611d84565b6003546109f29190611d38565b6109fc9190611d4f565b90506402540be400600354610a119190611d38565b8111610a1d57806105cd565b6402540be4006003546105cd9190611d38565b600060029054906101000a90046001600160a01b03166001600160a01b03166312d43a516040518163ffffffff1660e01b8152600401602060405180830381865afa158015610a83573d6000803e3d6000fd5b505050506040513d601f19601f82011682018060405250810190610aa79190611ce3565b6001600160a01b0316336001600160a01b031614610ad75760405162461bcd60e51b815260040161050f90611d00565b6001600160a01b03811660009081526005602081905260409091209081015460ff16610b155760405162461bcd60e51b815260040161050f90611d97565b60058101805460ff191690556040516001600160a01b038316907f6900afc1a924abca16a7f560e2dac3d71008c1cd1d88de8a85b6e4267116d18690600090a25050565b600060029054906101000a90046001600160a01b03166001600160a01b03166312d43a516040518163ffffffff1660e01b8152600401602060405180830381865afa158015610bac573d6000803e3d6000fd5b505050506040513d601f19601f82011682018060405250810190610bd09190611ce3565b6001600160a01b0316336001600160a01b031614610c005760405162461bcd60e51b815260040161050f90611d00565b6032811115610c215760405162461bcd60e51b815260040161050f90611e0f565b60018190556040518181527f2f33e68d48a82acaa58e3dcb12a4c7738cdfe7041d35f0e29ec8c39b780b370c9060200161058c565b600060029054906101000a90046001600160a01b03166001600160a01b031663ec44acf26040518163ffffffff1660e01b8152600401602060405180830381865afa158015610ca9573d6000803e3d6000fd5b505050506040513d601f19601f82011682018060405250810190610ccd9190611ce3565b6001600160a01b0316336001600160a01b031614610d1c5760405162461bcd60e51b815260206004820152600c60248201526b54524144494e475f4f4e4c5960a01b604482015260640161050f565b6001600160a01b0380821660009081526006602090815260408083208685168452600790925290912054909116151580610d5d57506001600160a01b038216155b80610d6d5750600681015460ff16155b15610d7757505050565b6001600160a01b03808416600081815260076020908152604080832080549588166001600160a01b0319968716811790915560018781018054918201815585529284209092018054909516841790945592517f0e67f4bbcd5c51b7365ca2dd861dc8094e393ca60de2ceae9d831761a839e92a9190a3505050565b600060029054906101000a90046001600160a01b03166001600160a01b03166312d43a516040518163ffffffff1660e01b8152600401602060405180830381865afa158015610e45573d6000803e3d6000fd5b505050506040513d601f19601f82011682018060405250810190610e699190611ce3565b6001600160a01b0316336001600160a01b031614610e995760405162461bcd60e51b815260040161050f90611d00565b60008111610ed35760405162461bcd60e51b8152602060048201526007602482015266056414c55455f360cc1b604482015260640161050f565b60048190556040518181527f62c913df1aba1897f65b2df8e0d7e2c7fb00de03742aa9570d5ab3a19d1201a69060200161058c565b6001600160a01b038116600090815260056020908152604091829020805483518184028101840190945280845260609392830182828015610640576020028201919060005260206000209081546001600160a01b031681526001909101906020018083116106225750505050509050919050565b600060029054906101000a90046001600160a01b03166001600160a01b03166312d43a516040518163ffffffff1660e01b8152600401602060405180830381865afa158015610fcf573d6000803e3d6000fd5b505050506040513d601f19601f82011682018060405250810190610ff39190611ce3565b6001600160a01b0316336001600160a01b0316146110235760405162461bcd60e51b815260040161050f90611d00565b6001600160a01b0381166110495760405162461bcd60e51b815260040161050f90611e37565b6001600160a01b03811660009081526005602081905260409091209081015460ff16156110ae5760405162461bcd60e51b8152602060048201526013602482015272414c4c595f414c52454144595f41435449564560681b604482015260640161050f565b60058101805460ff191660011790556040516001600160a01b038316907f80495287b7fdd5e00b7c8c1eb065c5b63474d11ffb062cc82c13da77dda8424d90600090a25050565b6001600160a01b03808216600090815260076020908152604080832054909316808352600691829052928220015490919060ff16611134576000611136565b805b9392505050565b60008060029054906101000a90046001600160a01b03166001600160a01b031662b127836040518163ffffffff1660e01b8152600401602060405180830381865afa158015611190573d6000803e3d6000fd5b505050506040513d601f19601f820116820180604052508101906111b49190611ce3565b6001600160a01b0316336001600160a01b0316146112055760405162461bcd60e51b815260206004820152600e60248201526d43414c4c4241434b535f4f4e4c5960901b604482015260640161050f565b6001600160a01b03808616600090815260076020908152604080832054909316808352600691829052929091209081015460ff1661124857600092505050611519565b600060646402540be40061126088856002015461064c565b61126a908a611d38565b6112749190611d4f565b61127e9190611d4f565b90506000856112926402540be40084611d38565b61129c9190611d4f565b6000546040516329bc0a1f60e11b815230600482015260248101839052600160448201529192506201000090046001600160a01b031690635378143e90606401600060405180830381600087803b1580156112f657600080fd5b505af115801561130a573d6000803e3d6000fd5b505084546001600160a01b03166000908152600560208190526040822090810154909350909150819060ff161561144a5760646001548661134b9190611d38565b6113559190611d4f565b91506064600154856113679190611d38565b6113719190611d4f565b90508a8360010160008282546113879190611d84565b92505081905550808360020160008282546113a29190611d84565b92505081905550808360030160008282546113bd9190611d84565b92505081905550818360040160008282546113d89190611d84565b909155506113e890508286611d71565b94506113f48185611d71565b8654604080518e8152602081018590529081018590529195506001600160a01b038e8116929116907f0d54fedb563328d37f00fe5ba0bf7689519f8cf02318562adfe7b4bfab8cf4b49060600160405180910390a35b8a86600201600082825461145e9190611d84565b92505081905550838660030160008282546114799190611d84565b92505081905550838660040160008282546114949190611d84565b92505081905550848660050160008282546114af9190611d84565b9091555050604080518c8152602081018690529081018690526001600160a01b03808e1691908916907f74e9754b45c636e199e3d7bb764fae1a9acce47a984d10dcfd74849ec4babc4f9060600160405180910390a361150f8286611d84565b9750505050505050505b949350505050565b600060029054906101000a90046001600160a01b03166001600160a01b03166312d43a516040518163ffffffff1660e01b8152600401602060405180830381865afa158015611574573d6000803e3d6000fd5b505050506040513d601f19601f820116820180604052508101906115989190611ce3565b6001600160a01b0316336001600160a01b0316146115c85760405162461bcd60e51b815260040161050f90611d00565b6001600160a01b0382166115ee5760405162461bcd60e51b815260040161050f90611e37565b6001600160a01b03821660009081526006602081905260409091209081015460ff16156116575760405162461bcd60e51b815260206004820152601760248201527652454645525245525f414c52454144595f41435449564560481b604482015260640161050f565b60068101805460ff191660011790556001600160a01b03821615611716576001600160a01b03821660009081526005602081905260409091209081015460ff166116d55760405162461bcd60e51b815260206004820152600f60248201526e414c4c595f4e4f545f41435449564560881b604482015260640161050f565b81546001600160a01b038085166001600160a01b03199283161784558254600181018455600093845260209093209092018054928616929091169190911790555b816001600160a01b0316836001600160a01b03167f15ad1d28b052a6cc2dd1d34d9e06a1847055d520e2163017e6e8aad6431b7f6a60405160405180910390a3505050565b33600090815260056020526040902060028101548061178c5760405162461bcd60e51b815260040161050f90611dc1565b60008260020181905550600060029054906101000a90046001600160a01b03166001600160a01b031663fc0c546a6040518163ffffffff1660e01b8152600401602060405180830381865afa1580156117e9573d6000803e3d6000fd5b505050506040513d601f19601f8201168201806040525081019061180d9190611ce3565b60405163a9059cbb60e01b8152336004820152602481018390526001600160a01b03919091169063a9059cbb906044016020604051808303816000875af115801561185c573d6000803e3d6000fd5b505050506040513d601f19601f820116820180604052508101906118809190611ded565b5060405181815233907f3dfe9be199655709d01d635bf441264a809a090c98ed7aae9abdc85f7dcbc09d90602001610970565b600060029054906101000a90046001600160a01b03166001600160a01b03166312d43a516040518163ffffffff1660e01b8152600401602060405180830381865afa158015611906573d6000803e3d6000fd5b505050506040513d601f19601f8201168201806040525081019061192a9190611ce3565b6001600160a01b0316336001600160a01b03161461195a5760405162461bcd60e51b815260040161050f90611d00565b603281111561197b5760405162461bcd60e51b815260040161050f90611e0f565b60038190556040518181527f4dec17ad9a229f707b7c2fb9531cd3b9c548f9eca80c03457ca38a0bb1df35fe9060200161058c565b600054610100900460ff16158080156119d05750600054600160ff909116105b806119ea5750303b1580156119ea575060005460ff166001145b611a4d5760405162461bcd60e51b815260206004820152602e60248201527f496e697469616c697a61626c653a20636f6e747261637420697320616c72656160448201526d191e481a5b9a5d1a585b1a5e995960921b606482015260840161050f565b6000805460ff191660011790558015611a70576000805461ff0019166101001790555b6001600160a01b03861615801590611a89575060328511155b8015611a96575060648411155b8015611aa3575060328311155b8015611aaf5750600082115b611aea5760405162461bcd60e51b815260206004820152600c60248201526b57524f4e475f504152414d5360a01b604482015260640161050f565b6000805462010000600160b01b031916620100006001600160a01b0389160217905560018590556002849055600383905560048290558015611b66576000805461ff0019169055604051600181527f7f26b83ff96e1f2b6a682f133852f6798a09c465da95921460cefb38474024989060200160405180910390a15b505050505050565b600060208284031215611b8057600080fd5b5035919050565b6001600160a01b0381168114611b9c57600080fd5b50565b600060208284031215611bb157600080fd5b813561113681611b87565b6020808252825182820181905260009190848201906040850190845b81811015611bfd5783516001600160a01b031683529284019291840191600101611bd8565b50909695505050505050565b60008060408385031215611c1c57600080fd5b50508035926020909101359150565b60008060408385031215611c3e57600080fd5b8235611c4981611b87565b91506020830135611c5981611b87565b809150509250929050565b60008060008060808587031215611c7a57600080fd5b8435611c8581611b87565b966020860135965060408601359560600135945092505050565b600080600080600060a08688031215611cb757600080fd5b8535611cc281611b87565b97602087013597506040870135966060810135965060800135945092505050565b600060208284031215611cf557600080fd5b815161113681611b87565b602080825260089082015267474f565f4f4e4c5960c01b604082015260600190565b634e487b7160e01b600052601160045260246000fd5b80820281158282048414176105cd576105cd611d22565b600082611d6c57634e487b7160e01b600052601260045260246000fd5b500490565b818103818111156105cd576105cd611d22565b808201808211156105cd576105cd611d22565b60208082526010908201526f414c52454144595f554e41435449564560801b604082015260600190565b6020808252601290820152714e4f5f50454e44494e475f5245574152445360701b604082015260600190565b600060208284031215611dff57600080fd5b8151801515811461113657600080fd5b6020808252600e908201526d056414c55455f41424f56455f35360941b604082015260600190565b6020808252600990820152680414444524553535f360bc1b60408201526060019056fea26469706673582212207ef265a55d8e96de8799c8049f6bbc35d28575796d9150df9df991935ba6a66464736f6c63430008110033",
  "linkReferences": {},
  "deployedLinkReferences": {}
}